{
  "_format": "hh3-artifact-1",
  "contractName": "RewardSystem",
  "sourceName": "contracts/RewardSystem.sol",
  "abi": [
    {
      "inputs": [],
      "stateMutability": "nonpayable",
      "type": "constructor"
    },
    {
      "inputs": [],
      "name": "AlreadyMember",
      "type": "error"
    },
    {
      "inputs": [
        {
          "internalType": "uint256",
          "name": "have",
          "type": "uint256"
        },
        {
          "internalType": "uint256",
          "name": "need",
          "type": "uint256"
        }
      ],
      "name": "InsufficientPoints",
      "type": "error"
    },
    {
      "inputs": [],
      "name": "InvalidAmount",
      "type": "error"
    },
    {
      "inputs": [],
      "name": "NotAdmin",
      "type": "error"
    },
    {
      "inputs": [],
      "name": "NotMember",
      "type": "error"
    },
    {
      "inputs": [],
      "name": "SelfTransfer",
      "type": "error"
    },
    {
      "anonymous": false,
      "inputs": [
        {
          "indexed": true,
          "internalType": "address",
          "name": "member",
          "type": "address"
        }
      ],
      "name": "MemberJoined",
      "type": "event"
    },
    {
      "anonymous": false,
      "inputs": [
        {
          "indexed": true,
          "internalType": "address",
          "name": "member",
          "type": "address"
        },
        {
          "indexed": false,
          "internalType": "uint256",
          "name": "points",
          "type": "uint256"
        }
      ],
      "name": "PointsEarned",
      "type": "event"
    },
    {
      "anonymous": false,
      "inputs": [
        {
          "indexed": true,
          "internalType": "address",
          "name": "admin",
          "type": "address"
        },
        {
          "indexed": true,
          "internalType": "address",
          "name": "member",
          "type": "address"
        },
        {
          "indexed": false,
          "internalType": "uint256",
          "name": "amount",
          "type": "uint256"
        }
      ],
      "name": "PointsGranted",
      "type": "event"
    },
    {
      "anonymous": false,
      "inputs": [
        {
          "indexed": true,
          "internalType": "address",
          "name": "from",
          "type": "address"
        },
        {
          "indexed": true,
          "internalType": "address",
          "name": "to",
          "type": "address"
        },
        {
          "indexed": false,
          "internalType": "uint256",
          "name": "amount",
          "type": "uint256"
        }
      ],
      "name": "PointsTransferred",
      "type": "event"
    },
    {
      "anonymous": false,
      "inputs": [
        {
          "indexed": true,
          "internalType": "address",
          "name": "member",
          "type": "address"
        },
        {
          "indexed": false,
          "internalType": "enum RewardType",
          "name": "reward",
          "type": "uint8"
        },
        {
          "indexed": false,
          "internalType": "uint256",
          "name": "cost",
          "type": "uint256"
        }
      ],
      "name": "RewardRedeemed",
      "type": "event"
    },
    {
      "stateMutability": "payable",
      "type": "fallback"
    },
    {
      "inputs": [],
      "name": "admin",
      "outputs": [
        {
          "internalType": "address",
          "name": "",
          "type": "address"
        }
      ],
      "stateMutability": "view",
      "type": "function"
    },
    {
      "inputs": [
        {
          "internalType": "uint256",
          "name": "amount",
          "type": "uint256"
        }
      ],
      "name": "earnPoints",
      "outputs": [],
      "stateMutability": "nonpayable",
      "type": "function"
    },
    {
      "inputs": [
        {
          "internalType": "address",
          "name": "to",
          "type": "address"
        },
        {
          "internalType": "uint256",
          "name": "amount",
          "type": "uint256"
        }
      ],
      "name": "grantPoints",
      "outputs": [],
      "stateMutability": "nonpayable",
      "type": "function"
    },
    {
      "inputs": [
        {
          "internalType": "address",
          "name": "user",
          "type": "address"
        }
      ],
      "name": "isMember",
      "outputs": [
        {
          "internalType": "bool",
          "name": "",
          "type": "bool"
        }
      ],
      "stateMutability": "view",
      "type": "function"
    },
    {
      "inputs": [],
      "name": "join",
      "outputs": [],
      "stateMutability": "nonpayable",
      "type": "function"
    },
    {
      "inputs": [
        {
          "internalType": "address",
          "name": "",
          "type": "address"
        }
      ],
      "name": "members",
      "outputs": [
        {
          "internalType": "uint256",
          "name": "points",
          "type": "uint256"
        },
        {
          "internalType": "bool",
          "name": "exists",
          "type": "bool"
        }
      ],
      "stateMutability": "view",
      "type": "function"
    },
    {
      "inputs": [
        {
          "internalType": "enum RewardType",
          "name": "reward",
          "type": "uint8"
        }
      ],
      "name": "redeem",
      "outputs": [],
      "stateMutability": "nonpayable",
      "type": "function"
    },
    {
      "inputs": [
        {
          "internalType": "enum RewardType",
          "name": "",
          "type": "uint8"
        }
      ],
      "name": "rewardCost",
      "outputs": [
        {
          "internalType": "uint256",
          "name": "",
          "type": "uint256"
        }
      ],
      "stateMutability": "view",
      "type": "function"
    },
    {
      "inputs": [
        {
          "internalType": "address",
          "name": "to",
          "type": "address"
        },
        {
          "internalType": "uint256",
          "name": "amount",
          "type": "uint256"
        }
      ],
      "name": "transferPoints",
      "outputs": [],
      "stateMutability": "nonpayable",
      "type": "function"
    },
    {
      "stateMutability": "payable",
      "type": "receive"
    }
  ],
  "bytecode": "0x60a060405234801561000f575f5ffd5b503373ffffffffffffffffffffffffffffffffffffffff1660808173ffffffffffffffffffffffffffffffffffffffff1681525050606460015f5f600281111561005c5761005b6100fb565b5b600281111561006e5761006d6100fb565b5b81526020019081526020015f2081905550603260015f60016002811115610098576100976100fb565b5b60028111156100aa576100a96100fb565b5b81526020019081526020015f2081905550601960015f6002808111156100d3576100d26100fb565b5b60028111156100e5576100e46100fb565b5b81526020019081526020015f2081905550610128565b7f4e487b71000000000000000000000000000000000000000000000000000000005f52602160045260245ffd5b60805161127a6101475f395f81816109c30152610d6f015261127a5ff3fe608060405260043610610089575f3560e01c806396911e7a1161005857806396911e7a146101b9578063a230c524146101e1578063b688a3631461021d578063d4a9b7b614610233578063f851a4401461026f576100c9565b806308ae4b0c1461010457806332271faf14610141578063326f823f146101695780638593234514610191576100c9565b366100c9576040517f08c379a00000000000000000000000000000000000000000000000000000000081526004016100c090610deb565b60405180910390fd5b6040517f08c379a00000000000000000000000000000000000000000000000000000000081526004016100fb90610e53565b60405180910390fd5b34801561010f575f5ffd5b5061012a60048036038101906101259190610ecf565b610299565b604051610138929190610f2c565b60405180910390f35b34801561014c575f5ffd5b5061016760048036038101906101629190610f76565b6102c4565b005b348015610174575f5ffd5b5061018f600480360381019061018a9190610fcb565b6104e4565b005b34801561019c575f5ffd5b506101b760048036038101906101b29190611009565b610812565b005b3480156101c4575f5ffd5b506101df60048036038101906101da9190610fcb565b6109c1565b005b3480156101ec575f5ffd5b5061020760048036038101906102029190610ecf565b610bbe565b6040516102149190611034565b60405180910390f35b348015610228575f5ffd5b50610231610c12565b005b34801561023e575f5ffd5b5061025960048036038101906102549190610f76565b610d58565b604051610266919061104d565b60405180910390f35b34801561027a575f5ffd5b50610283610d6d565b6040516102909190611075565b60405180910390f35b5f602052805f5260405f205f91509050805f015490806001015f9054906101000a900460ff16905082565b5f5f3373ffffffffffffffffffffffffffffffffffffffff1673ffffffffffffffffffffffffffffffffffffffff1681526020019081526020015f206001015f9054906101000a900460ff16610346576040517f291fc44200000000000000000000000000000000000000000000000000000000815260040160405180910390fd5b5f60015f83600281111561035d5761035c61108e565b5b600281111561036f5761036e61108e565b5b81526020019081526020015f205490505f81116103c1576040517f08c379a00000000000000000000000000000000000000000000000000000000081526004016103b890611105565b60405180910390fd5b5f5f5f3373ffffffffffffffffffffffffffffffffffffffff1673ffffffffffffffffffffffffffffffffffffffff1681526020019081526020015f205f015490508181101561044a5780826040517f8059c747000000000000000000000000000000000000000000000000000000008152600401610441929190611123565b60405180910390fd5b8181035f5f3373ffffffffffffffffffffffffffffffffffffffff1673ffffffffffffffffffffffffffffffffffffffff1681526020019081526020015f205f01819055503373ffffffffffffffffffffffffffffffffffffffff167f90664ba7a20bcf91becfb4f0bbc2a5cb17590c6e691d47b158a51496a84408a784846040516104d7929190611190565b60405180910390a2505050565b5f5f3373ffffffffffffffffffffffffffffffffffffffff1673ffffffffffffffffffffffffffffffffffffffff1681526020019081526020015f206001015f9054906101000a900460ff16610566576040517f291fc44200000000000000000000000000000000000000000000000000000000815260040160405180910390fd5b3373ffffffffffffffffffffffffffffffffffffffff168273ffffffffffffffffffffffffffffffffffffffff16036105cb576040517f4d9ecd9100000000000000000000000000000000000000000000000000000000815260040160405180910390fd5b5f5f8373ffffffffffffffffffffffffffffffffffffffff1673ffffffffffffffffffffffffffffffffffffffff1681526020019081526020015f206001015f9054906101000a900460ff1661064d576040517f291fc44200000000000000000000000000000000000000000000000000000000815260040160405180910390fd5b5f8103610686576040517f2c5211c600000000000000000000000000000000000000000000000000000000815260040160405180910390fd5b5f5f5f3373ffffffffffffffffffffffffffffffffffffffff1673ffffffffffffffffffffffffffffffffffffffff1681526020019081526020015f205f015490508181101561070f5780826040517f8059c747000000000000000000000000000000000000000000000000000000008152600401610706929190611123565b60405180910390fd5b8181035f5f3373ffffffffffffffffffffffffffffffffffffffff1673ffffffffffffffffffffffffffffffffffffffff1681526020019081526020015f205f0181905550815f5f8573ffffffffffffffffffffffffffffffffffffffff1673ffffffffffffffffffffffffffffffffffffffff1681526020019081526020015f205f015f8282546107a191906111e4565b925050819055508273ffffffffffffffffffffffffffffffffffffffff163373ffffffffffffffffffffffffffffffffffffffff167f8368079d4813055221156198c714ea6a6742cfcec7c979383b0085e1cc738dc084604051610805919061104d565b60405180910390a3505050565b5f5f3373ffffffffffffffffffffffffffffffffffffffff1673ffffffffffffffffffffffffffffffffffffffff1681526020019081526020015f206001015f9054906101000a900460ff16610894576040517f291fc44200000000000000000000000000000000000000000000000000000000815260040160405180910390fd5b5f81036108cd576040517f2c5211c600000000000000000000000000000000000000000000000000000000815260040160405180910390fd5b805f5f3373ffffffffffffffffffffffffffffffffffffffff1673ffffffffffffffffffffffffffffffffffffffff1681526020019081526020015f205f015f82825461091a91906111e4565b925050819055503373ffffffffffffffffffffffffffffffffffffffff167f2c4c0dc427a50c4a69d2fc184c47a311acf950d8d2f289fbaee64e83e9b2896782604051610967919061104d565b60405180910390a2805f5f3373ffffffffffffffffffffffffffffffffffffffff1673ffffffffffffffffffffffffffffffffffffffff1681526020019081526020015f205f015410156109be576109bd611217565b5b50565b7f000000000000000000000000000000000000000000000000000000000000000073ffffffffffffffffffffffffffffffffffffffff163373ffffffffffffffffffffffffffffffffffffffff1614610a46576040517f7bfa4b9f00000000000000000000000000000000000000000000000000000000815260040160405180910390fd5b5f5f8373ffffffffffffffffffffffffffffffffffffffff1673ffffffffffffffffffffffffffffffffffffffff1681526020019081526020015f206001015f9054906101000a900460ff16610ac8576040517f291fc44200000000000000000000000000000000000000000000000000000000815260040160405180910390fd5b5f8103610b01576040517f2c5211c600000000000000000000000000000000000000000000000000000000815260040160405180910390fd5b805f5f8473ffffffffffffffffffffffffffffffffffffffff1673ffffffffffffffffffffffffffffffffffffffff1681526020019081526020015f205f015f828254610b4e91906111e4565b925050819055508173ffffffffffffffffffffffffffffffffffffffff163373ffffffffffffffffffffffffffffffffffffffff167f3c8e301208702a207f6a695e03bc1356d3256ed557b0f641b49392a3dc01d15183604051610bb2919061104d565b60405180910390a35050565b5f5f5f8373ffffffffffffffffffffffffffffffffffffffff1673ffffffffffffffffffffffffffffffffffffffff1681526020019081526020015f206001015f9054906101000a900460ff169050919050565b5f5f3373ffffffffffffffffffffffffffffffffffffffff1673ffffffffffffffffffffffffffffffffffffffff1681526020019081526020015f206001015f9054906101000a900460ff1615610c95576040517f810074be00000000000000000000000000000000000000000000000000000000815260040160405180910390fd5b60405180604001604052805f8152602001600115158152505f5f3373ffffffffffffffffffffffffffffffffffffffff1673ffffffffffffffffffffffffffffffffffffffff1681526020019081526020015f205f820151815f01556020820151816001015f6101000a81548160ff0219169083151502179055509050503373ffffffffffffffffffffffffffffffffffffffff167f0abf3b3f643594d958297062a019458e27d7766629590ac621aa1000fa1298ab60405160405180910390a2565b6001602052805f5260405f205f915090505481565b7f000000000000000000000000000000000000000000000000000000000000000081565b5f82825260208201905092915050565b7f4e6f2045544820616363657074656400000000000000000000000000000000005f82015250565b5f610dd5600f83610d91565b9150610de082610da1565b602082019050919050565b5f6020820190508181035f830152610e0281610dc9565b9050919050565b7f496e76616c69642043616c6c00000000000000000000000000000000000000005f82015250565b5f610e3d600c83610d91565b9150610e4882610e09565b602082019050919050565b5f6020820190508181035f830152610e6a81610e31565b9050919050565b5f5ffd5b5f73ffffffffffffffffffffffffffffffffffffffff82169050919050565b5f610e9e82610e75565b9050919050565b610eae81610e94565b8114610eb8575f5ffd5b50565b5f81359050610ec981610ea5565b92915050565b5f60208284031215610ee457610ee3610e71565b5b5f610ef184828501610ebb565b91505092915050565b5f819050919050565b610f0c81610efa565b82525050565b5f8115159050919050565b610f2681610f12565b82525050565b5f604082019050610f3f5f830185610f03565b610f4c6020830184610f1d565b9392505050565b60038110610f5f575f5ffd5b50565b5f81359050610f7081610f53565b92915050565b5f60208284031215610f8b57610f8a610e71565b5b5f610f9884828501610f62565b91505092915050565b610faa81610efa565b8114610fb4575f5ffd5b50565b5f81359050610fc581610fa1565b92915050565b5f5f60408385031215610fe157610fe0610e71565b5b5f610fee85828601610ebb565b9250506020610fff85828601610fb7565b9150509250929050565b5f6020828403121561101e5761101d610e71565b5b5f61102b84828501610fb7565b91505092915050565b5f6020820190506110475f830184610f1d565b92915050565b5f6020820190506110605f830184610f03565b92915050565b61106f81610e94565b82525050565b5f6020820190506110885f830184611066565b92915050565b7f4e487b71000000000000000000000000000000000000000000000000000000005f52602160045260245ffd5b7f496e76616c6964205265776172640000000000000000000000000000000000005f82015250565b5f6110ef600e83610d91565b91506110fa826110bb565b602082019050919050565b5f6020820190508181035f83015261111c816110e3565b9050919050565b5f6040820190506111365f830185610f03565b6111436020830184610f03565b9392505050565b6003811061115b5761115a61108e565b5b50565b5f81905061116b8261114a565b919050565b5f61117a8261115e565b9050919050565b61118a81611170565b82525050565b5f6040820190506111a35f830185611181565b6111b06020830184610f03565b9392505050565b7f4e487b71000000000000000000000000000000000000000000000000000000005f52601160045260245ffd5b5f6111ee82610efa565b91506111f983610efa565b9250828201905080821115611211576112106111b7565b5b92915050565b7f4e487b71000000000000000000000000000000000000000000000000000000005f52600160045260245ffdfea26469706673582212201e34782af8570c51af47a6b7bd13fd7161df36bbab77d245d5bafa93475962e864736f6c634300081f0033",
  "linkReferences": {},
  "deployedLinkReferences": {},
  "immutableReferences": {
    "285": [
      {
        "length": 32,
        "start": 2499
      },
      {
        "length": 32,
        "start": 3439
      }
    ]
  },
  "inputSourceName": "project/contracts/RewardSystem.sol",
  "buildInfoId": "solc-0_8_31-0809211b3687ea3774031ce5ad4fe2c157bc2445"
}